:020000040800F2
:1000000068090020990100080F1F0008751D0008ED
:100010000D1F00084F09000815230008000000000C
:100020000000000000000000000000006B1F00083E
:100030005109000800000000691F00086D1F00083A
:10004000B3010008B3010008B3010008B3010008C0
:10005000B3010008B3010008B3010008B3010008B0
:10006000B3010008B3010008B3010008B3010008A0
:10007000B3010008B3010008B3010008B301000890
:10008000B3010008B3010008B3010008B301000880
:10009000B3010008B3010008B30100085B090008C0
:1000A000B3010008B3010008B3010008B301000860
:1000B000D11F0008B3010008B3010008B301000814
:1000C000B3010008B3010008B3010008B301000840
:1000D000B3010008FD22000809230008B30100084D
:1000E00053090008B3010008B301000800F002F84A
:1000F00000F043F80AA090E8000C82448344AAF17F
:100100000107DA4501D100F038F8AFF2090EBAE87C
:100110000F0013F0010F18BFFB1A43F0010318473B
:10012000E422000004230000103A24BF78C878C1FC
:10013000FAD8520724BF30C830C144BF04680C60ED
:10014000704700000023002400250026103A28BF35
:1001500078C1FBD8520728BF30C148BF0B60704739
:100160001FB500F0A9FB04000020002102F028F9CF
:10017000401C60601FBD10B510BD00F065FB11464E
:10018000FFF7EEFF02F0D8F800F08CFB03B4FFF7A6
:10019000F2FF03BC00F0D4FB094880470948004740
:1001A000FEE7FEE7FEE7FEE7FEE7FEE7FEE7FEE727
:1001B000FEE7FEE704480549054A064B7047000084
:1001C000CF1F0008ED000008680300206809002028
:1001D00068050020680500200FB400B58DB010A997
:1001E000099000910B904FF0FF300A9000200C9086
:1001F000064878440690064878446A4607900F9966
:1002000009A800F02DF90DB05DF814FB8B02000079
:10021000A30200002DE9FF5F1D464FF0FF3B914612
:100220004FF000085F46D5E90146A96901987F1C97
:100230008847296A824688470028F6D1BAF1FF3FED
:100240000CD0002E24F4C06419DD600614D5BAF178
:100250002B0F09D0BAF12D0F0ED103E0584604B090
:10026000BDE8F09F44F48064A96901987F1C884729
:10027000761E8246002E02DDBAF1300F03D0B9F1AE
:10028000000F26D032E0A969761E01987F1C44F445
:1002900000748847002E824605DDBAF1780F06D03B
:1002A000BAF1580F03D0B9F1000F10D01EE0B9F128
:1002B000000F02D0B9F1100F18D1A969761E01986C
:1002C0007F1C24F4007488478246102002E0082036
:1002D00000E00A20814609E0A96908FB0908761EAA
:1002E00001987F1C44F4007488478246002E05DD87
:1002F0004946504600F09FF80028EDDAE969019878
:100300008847A00502D46FF00100A8E7E00725D1D7
:10031000600613D5600502D5C8F1000000E0404634
:1003200029680A1D2A600968220501D5087015E0B0
:10033000220701D5088011E008600FE02868011D40
:1003400029600068210502D580F8008006E02107B9
:1003500002D5A0F8008001E0C0F8008038467EE7B2
:1003600010B5431C02E010F8011B71B18107FAD1EE
:100370004FF0013202C88C1A8C4314EAC211F9D032
:10038000C01A0A0603D0C01E10BDC01A10BD0A0450
:1003900001D0801E10BD0902FCD0401E10BD4FF0E0
:1003A00000020429C0F0128010F0030C00F01B8042
:1003B000CCF1040CBCF1020F18BF00F8012BA8BF50
:1003C00020F8022BA1EB0C0100F00DB85FEAC17C14
:1003D00024BF00F8012B00F8012B48BF00F8012BC7
:1003E00070474FF0000200B51346944696462039F8
:1003F00022BFA0E80C50A0E80C50B1F12001BFF4DE
:10040000F7AF090728BFA0E80C5048BF0CC05DF843
:1004100004EB890028BF40F8042B08BF704748BF91
:1004200020F8022B11F0804F18BF00F8012B704705
:100430007047704770473A2800D2303820F02002C9
:10044000412A01D3A2F13700884201D34FF0FF3097
:100450007047000002681144137801601846704725
:10046000D160054979445161044979441162002100
:100470001161114600F02EB8EDFFFFFF53000000A0
:10048000426842B1016811F8013B23B1521EC0E934
:100490000012184670470121C160881E70474268EB
:1004A0005AB1C368016843B983688B4205D0491EBD
:1004B000521CC0E90012002070474FF0FF30704717
:1004C00010B5044600F0E6F90068005D00F0010098
:1004D00010BD00002DE9F34F4FF0000A0C465646C0
:1004E0008DB001200C9001F10C000B9062690B980B
:1004F0000121904705002DD0252D2CD0216A884759
:10050000C0B162690B9801219047216A8847002891
:10051000F7D16269411E0B98904700E0761CA169F3
:100520000D988847216A88470028F7D1E1690D981E
:100530008847DBE7A1690D988847A842074601D1A3
:10054000761CD3E7E1690D9888477F1C02D1BAF188
:10055000000F6FD06BE162690B9800273D4639466A
:1005600090472A2804D162690B9801219047012500
:10057000DFF8D08262690B9801219047A0F1300129
:100580000A290AD24745E5DC07EB870100EB410762
:10059000303FDFD445F01005ECE7E90601D46FF0F9
:1005A00000476C280AD04C2814D0682815D06A2837
:1005B0000DD074281CD07A281AD01DE062690B98DF
:1005C000012190476C2802D045F0040514E045F065
:1005D00002050DE045F020050AE062690B98012153
:1005E0009047682802D045F0080505E045F400650D
:1005F00062690B9801219047C4E9015765283DD0F5
:1006000019DC58287AD00CDC452837D004DC2528A2
:1006100026D041289ED131E046282FD0472899D1B5
:100620002CE05B2877D0612828D063287CD0642810
:1006300023D15AE0F6E06F2848D008DC66281DD0A8
:1006400067281BD0692821D06E2816D127E0702892
:1006500045D0732868D0752847D078280DD14DE053
:10066000A1690D988847252805463FF469AFE169DF
:100670000D9888476D1C3FF46AAFD8E00D9923466A
:100680006A466FF00100AFF30080C5E045F040001E
:1006900023464FF000026060A80736D43EE0E8072A
:1006A0007FF447AF2068011D21600068290501D54E
:1006B00006701BE7290701D5068017E7A90703D5B0
:1006C000F117C0E9006111E706600FE745F040004F
:1006D00023464FF008026060A80716D41EE040F6DB
:1006E0000E0125EA0100606016E045F04000234657
:1006F0004FF00A026060A80707D40FE045F0400001
:100700006060A80708D5234610220D996FF00100FC
:10071000AFF3008080E007E0102223460D996FF0D0
:100720000100FFF777FD77E04FF0000963284F469F
:10073000C8464B46CB4602D05B2806D038E0E806D8
:1007400001D40120A060012732E06269D4F80CB026
:100750000B98012190475E2807D14FF001094946C7
:100760006269D4F80CB00B989047216939B900211F
:100770000A4603AB43F82120491C0829FADBD8B309
:10078000216949B308F1010862690B98012190477A
:100790005D28F4D1B9F1000F09D0002003A951F868
:1007A0002020D24341F82020401C0828F7DB03AB6F
:1007B0002069002820794FEA40701ED05B4622460F
:1007C000CDF80080CDE901970D9900286FF0010068
:1007D00020DAAFF300801FE0C11703AA00EBD1615C
:1007E0004B1121F01F0102EB8302411A1368012013
:1007F000884003431360C7E719E00D99224600289B
:100800006FF00100009702DAAFF3008004E0AFF36D
:10081000008001E0AFF3008000280ADA401C06D116
:100820000C9820B14FF0FF300FB0BDE8F08F50466C
:10083000FAE7E90701D10AF1010A064400200C9009
:1008400054E60000CCCCCC0C754600F031F8AE4636
:1008500005006946534620F00700854618B020B5CC
:10086000FFF7A8FCBDE820404FF000064FF000075E
:100870004FF000084FF0000B21F00701AC46ACE848
:10088000C009ACE8C009ACE8C009ACE8C0098D46B5
:100890007047000010B500F00FF8001D10BD00BF3C
:1008A000211B00000446AFF300802046FFF76EFCDA
:1008B00000487047040300200048704724030020CC
:1008C0004FF0013C50F8042B51F8043B9A4221D1DF
:1008D000A2EB0C03934313EACC1317D150F8042B6B
:1008E00051F8043B9A4215D1A2EB0C03934313EA4F
:1008F000CC130BD150F8042B51F8043B9A4209D188
:10090000A2EB0C03934313EACC13DBD04FF00000AF
:10091000704700BFD01A01BAB1FA81F101F0180195
:1009200022FA01F0CB40C1F12001DBB2C0B2C01A03
:100930002CFA01F3D11A914311EAC311E6D17047A1
:1009400001491820ABBEFEE7260002007047FEE713
:1009500070474FF4006000F007B94FF4807000F06A
:1009600003B972B6FEE710B590F8211000220229F3
:1009700005D00421816380F82020012010BD01688A
:100980000B6823F00E030B6001680B6823F0010372
:100990000B6090F84030C46B012101FA03F36360EF
:1009A00080F8211080F82020104610BD10B590F876
:1009B00021100024022903D00421816301243DE099
:1009C00001680A6822F00E020A6001680A6822F0D3
:1009D00001020A601A4A0168914201D1012121E015
:1009E000174A1432914201D110211BE0144A2832D7
:1009F000914201D1891515E0114A3C32914201D151
:100A000089140FE00E4A5032914202D14FF48031E6
:100A100008E00B4A6432914202D14FF4801101E0A8
:100A20004FF08071064A083A5160012180F8211088
:100A3000002180F82010416B01B18847204610BD8D
:100A40000800024070B5044600F09CF90546601CA1
:100A500002D004480078044400F094F9401BA042FE
:100A6000FAD370BD240000202DE9F05F4FF48076AA
:100A7000354F364D364CB0422ED13146204600F02F
:100A80006FF938BB1420FFF7DDFF3146204600F038
:100A900067F998B11EE044464146284600F065F9E2
:100AA000C820FFF7CFFF2146284600F05EF95346E5
:100AB0000A2228A12B4801F003F905E0B1464FF4C2
:100AC00000484FF6FF7A26464946304600F048F97E
:100AD0000028E0D0172034E04FF40066B04231D156
:100AE0003146204600F03CF950BB1420FFF7AAFF26
:100AF0003146204600F034F9B0B121E04446414689
:100B0000284600F032F94E464946284600F02DF9B5
:100B1000C820FFF797FF2146284600F026F9314606
:100B2000284600F022F905E04FF400584FF48049C0
:100B3000A346B2465146584600F012F90028DDD0CF
:100B400028203860BDE8F09F14040140000C0140EB
:100B500000080140E695B0E68DAEE6BAA2E587BA98
:100B6000000000007C020020044910B50A6802421F
:100B700002D00860FFF778FF10BD000014040140A8
:100B80002DE9F84FDFF8B891002409F1040A0AF1C1
:100B9000040B23460F270BF1040EC9E00125A540E5
:100BA0002A40AA427DD1674ED1F804C0ACEB0608BA
:100BB000B44532D014DCBCF1030F3AD009DCBCF1EF
:100BC000000F2AD0BCF1010F1CD0BCF1020F31D1B3
:100BD0001DE0BCF1110F17D0BCF1120F2AD119E0A2
:100BE000B8F5881F19D006DCB8F5803F15D0B8F5E8
:100BF000801F1FD111E0B8F5001F0ED0B8F5041FFB
:100C000018D10AE0CB6815E0CB681B1D12E0CB6859
:100C100008330FE0CB680C330CE08B682BB1012B51
:100C20004FF0080303D0456104E0042302E00561AE
:100C300000E00023FF2A01D8064601E000F1040687
:100C40004FEA840501D9A5F12005D6F8008007FAFE
:100C500005FC28EA0C0803FA05F548EA0508C6F879
:100C600000804D68ED0062D5374DAE6946F0010653
:100C7000AE61AD6924F0030605F001050095334D22
:100C800006EB050CDCF80850A607360F07FA06F845
:100C900025EA0805DFF8B880404503D14FF0000889
:100CA00017E044E0DFF8AC80404502D14FF0010886
:100CB0000FE0DFF8A480404502D14FF0020808E0C1
:100CC000DFF89880404502D14FF0030801E04FF073
:100CD000040808FA06F848EA0508CCF808804D68C8
:100CE000D9F80060ED034D4601D5164300E0964368
:100CF0002E604D68DAF80060AD03554601D5164305
:100D000000E096432E604D68DBF80060ED025D4622
:100D100001D5164300E096432E604D68DEF8006072
:100D2000AD02754601D5164300E096432E60641C63
:100D30000D682A46E5407FF431AFBDE8F88F00002A
:100D400000040140000011100010024000000140AA
:100D500000080140000C0140001001400014014057
:100D60008068084000D001207047C26821EA020371
:100D70000A4043EA0241016170470AB101617047CC
:100D80000904FBE701488068704700002400002048
:100D90000248816802781144816070472400002075
:100DA000074810B5016841F010010160032000F010
:100DB0006FF8002000F006F800F024F8002010BDC5
:100DC0000020024070B50D4D04464FF47A7128782A
:100DD000B1FBF0F00A490968B1FBF0F000F0E6FA67
:100DE00048B9102C07D200222146501E00F030F8DE
:100DF00000206C6070BD012070BD00002400002048
:100E0000300000200A4882B0816941F0010181610F
:100E1000816901F001010091C16941F08051C16116
:100E2000C06900F080500090052002B000F030B89A
:100E300000100240002809DB00F01F020121914050
:100E40004009800000F1E020C0F800117047000068
:100E5000F0B40E4B1B680C46C3F30223C3F1070525
:100E6000042D00D90425191D072901D2002300E013
:100E7000DB1E012606FA05F1491E214099409E40DD
:100E8000761E16403143F0BC01F045BA0CED00E08F
:100E9000064900F0070208684FF6FF03184040EAD1
:100EA0000220034A10430860704700000CED00E088
:100EB0000000FA052DE9F0470F46050061D0434ECA
:100EC000306800F00700B84209D2306820F007000F
:100ED00038433060306800F00700B84251D12868CC
:100EE0003B4C810712D5400703D5606840F4E060B1
:100EF00060602878000703D5606840F46050606047
:100F00006068A96820F0F000084360602878C00796
:100F100028D06868012810D02168022810D08907DD
:100F200000292EDA616821F0030101436160FFF7B7
:100F300029FF804641F288390DE021688903EFE7F7
:100F40008901EDE7FFF71EFFA0EB0801494502D933
:100F50000320BDE8F0876068696800F00C00B0EB22
:100F6000810FEFD1306800F00700B8420BD930682C
:100F700020F0070038433060306800F00700B842C6
:100F800001D00120E5E72878400705D56068E968C9
:100F900020F4E060084360602878000706D56068A8
:100FA000296920F4605040EAC100606000F038F820
:100FB0006168084AC1F30311515CC84006490860E2
:100FC00006480068FFF7FEFE0020C2E7002002404E
:100FD00000100240EC230008300000202800002010
:100FE0000448054900684968044AC1F30221515C7C
:100FF000C84070473000002000100240FC23000869
:101000000448054900684968044AC1F3C221515C9B
:10101000C84070473000002000100240FC23000848
:1010200012A185B00FC98DE80F0014A0144A006802
:1010300004905168134801F00C03042B10D0082BC6
:101040000ED1C1F38343C9031DF803000AD55168CB
:1010500004AAC1F34041515C0A4A5043B0FBF1F08D
:1010600005B0704708494843FAE700000203040549
:10107000060708090A0B0C0D0E0F101001020000E4
:101080000010024000127A0000093D002DE9F84FDF
:10109000040070D02078C04DC00749D06868C0F304
:1010A0008100012807D06868C0F38100022809D1B7
:1010B0006868C00306D52868800339D560680028B1
:1010C000E7D035E06068B0F5803F0BD010B1B0F5E7
:1010D000A02F11D0286820F480302860286820F4E0
:1010E000802002E0286840F480302860606890B179
:1010F000FFF748FE06460AE0286840F48020286092
:10110000F0E700BFFFF73EFE801B642873D8286815
:101110008003F7D50CE0FFF735FE064605E000BF7B
:10112000FFF730FE801B6428F0D828688003F7D4CE
:1011300020789A4E80074FF001094FF0000839D50A
:10114000686810F00C0F07D06868C0F381000228AF
:1011500009D16868C00306D42868800714D52069BF
:10116000012808D110E02069B0B1C6F80090FFF75F
:1011700009FE074605E00AE1FFF704FEC01B02284E
:10118000C4D828688007F7D52868616920F0F8007E
:1011900040EAC10028600DE0C6F80080FFF7F2FDCC
:1011A000074604E0FFF7EEFDC01B022823D828689D
:1011B0008007F7D4207800072CD57948A169D9B1E8
:1011C000C0F80090FFF7DEFD074604E0FFF7DAFD08
:1011D000C01B02280FD8686A8007F7D571484FF402
:1011E000FA510068B0FBF1F0009000BF0098411E7A
:1011F0000091FAD20EE080E0C0F80080FFF7C2FD57
:10120000074604E0FFF7BEFDC01B022875D8686AD8
:101210008007F7D42078400760D5E8690027C00030
:1012200008D4E86940F08050E861E869012700F0DF
:10123000805000905C480168C90513D4016883465A
:1012400041F480710160FFF79DFD824606E000BF1A
:10125000FFF798FDA0EB0A0064284ED8DBF80000E9
:10126000C005F5D5E06801280AD008B1052813D0DB
:10127000286A20F001002862286A20F0040002E0B9
:10128000286A40F001002862E06841F2883B98B18A
:10129000FFF778FD82460BE0286A40F004002862E0
:1012A000EEE700BFFFF76EFDA0EB0A0159455AD8E3
:1012B000286A8007F6D50CE0FFF764FD824605E05A
:1012C000FFF760FDA0EB0A0159454CD8286A80075A
:1012D000F6D41FB1E86920F08050E861E06988B376
:1012E0006968C1F38101022944D00228C6F86080F0
:1012F00004D0FFF747FD044638E034E0FFF742FD35
:10130000074604E0FFF73EFDC01B02282BD82868E3
:101310008001F7D4206AB0F5803F05D16868A168E4
:1013200020F4003008436860D4E908010843696884
:1013300021F4741108436860C6F86090FFF722FD3D
:10134000044606E025E000BFFFF71CFD001B022855
:1013500009D828688001F7D51BE000BFFFF712FD10
:10136000001B022802D90320BDE8F88F28688001FD
:10137000F4D40EE00128F7D06868226A00F48031C6
:10138000914204D1616A00F47010884201D00120BA
:10139000EAE70020E8E700000010024000004242B7
:1013A00080044242300000200070004010B5401E12
:1013B000B0F1807F01D3012010BD4FF0E0246061C7
:1013C0000F21601700F0A7FF0020A0610720206117
:1013D000002010BD7047704770B590F83C20012A7E
:1013E00026D0012480F83C40022280F83D2003688A
:1013F0005A689D6822F070060A6832435A600D4BA5
:1014000002689A4208D0B2F1804F05D00A4B9A4246
:1014100002D00A4B9A4204D1496825F0800319434F
:10142000916080F83D40002180F83C10084670BD76
:10143000022070BD002C0140000400400008004064
:1014400010B5040003D094F83D0010B107E001206E
:1014500010BD002084F83C00204600F01FF8022058
:1014600084F83D00211D206800F0B8FD012084F8BB
:10147000460084F83E0084F83F0084F8400084F879
:10148000410084F8420084F8430084F8440084F862
:10149000450084F83D00002010BD000008B500683C
:1014A000B0F1804F12D10A48C16941F00101C16118
:1014B000C069002200F00100009003211C20FFF70A
:1014C000C7FCBDE808401C20FFF7B4BC08BD000005
:1014D0000010024090F83D10012901D00120704712
:1014E000022180F83D100168CA6842F00102CA601A
:1014F00000680B49884208D0B0F1804F05D00949F7
:10150000884202D00849884204D1816801F007016D
:10151000062903D0016841F00101016000207047F5
:10152000002C0140000400400008004070B5044653
:1015300090F83C00012817D0012584F83C50022087
:1015400084F83D002068826822F0770222F47F420E
:1015500082600868502830D00DDC20284DD005DC92
:1015600098B310283BD148E0022070BD302844D009
:10157000402834D139E0602828D0702806D0B0F552
:10158000805F2CD0B0F5005F29D10AE0CB68D1E9AB
:101590000121206800F058FD2068816841F0770142
:1015A00009E0CB68D1E90121206800F04DFD2068F9
:1015B000816841F48041816011E0CA68496820680F
:1015C00000F054FD5021206807E016E0CA68496821
:1015D000206800F05CFD6021206800F03FFD84F889
:1015E0003D50002084F83C0070BDCA6849682068FE
:1015F00000F03CFD40212068EFE7226801461046DC
:10160000EBE7704770B50446006801694FF00005CC
:10161000C943890715D4C168C943890711D4E91E94
:10162000016101202077206880698007204602D070
:10163000FFF7E7FF04E000F098F8204600F096F886
:10164000257720680169C943490717D4C168C94390
:10165000490713D46FF0040101610220207720684C
:10166000806910F4407F204602D0FFF7CAFF04E0F3
:1016700000F07BF8204600F079F8257720680169B2
:10168000C943090716D4C168C943090712D46FF0CA
:1016900008010161042020772068C0698007204686
:1016A00002D0FFF7AEFF04E000F05FF8204600F044
:1016B0005DF8257720680169C943C90617D4C16858
:1016C000C943C90613D46FF01001016108202077C7
:1016D0002068C06910F4407F204602D0FFF791FFD8
:1016E00004E000F042F8204600F040F8257720683A
:1016F0000169C943C90708D1C168C943C90704D1F1
:10170000891E0161204600F033F820680169C94351
:10171000090609D4C168C943090605D46FF08001E0
:1017200001612046FFF756FE20680169C94349065A
:1017300009D4C168C943490605D46FF0400101616D
:10174000204600F021F820680169C94389060BD4BE
:10175000C168C943890607D46FF0200101612046A2
:10176000BDE87040FFF737BE70BD7047704700009E
:101770000349884203D103488168491C816070474E
:10178000340200200000002070477047704710F8B6
:101790003D1F407808437047F8B50268044610685A
:1017A000D168536910F00F0F4FF0000554D003F0CB
:1017B000010601F4907737435FD0C20705D0CA0510
:1017C00003D5226C42F001022264420705D5DA07F4
:1017D00003D0226C42F002022264820705D5DA07A8
:1017E00003D0226C42F004022264020707D501F004
:1017F0002002324303D0226C42F008022264226CA1
:10180000002A35D0800604D5880602D5204600F08F
:1018100070FC20684069216CC0F3801001F0080161
:101820000143204625D000F04CFC20684169490660
:101830001BD5416921F040014161A06BA8B1584915
:101840004163A06BFFF7B2F8002811D0A06B416B89
:1018500001B0BDE8F040084783060ED58B060CD5D5
:101860002046BDE8F84000F044BC2046FFF78EFF5C
:10187000F8BDFFF78BFF2564F8BD266B2023012EF2
:1018800052D1C60650D5CE064ED51068506800908D
:10189000506940062AD5A16B086840680004000C16
:1018A000EAD0A68D8642E7D9E0858869202818D03D
:1018B000D06820F48070D0602068416921F0010177
:1018C00041612068416921F04001416184F83E3066
:1018D00025632068C16821F01001C160A06BFFF78B
:1018E00042F8A08DE18D401A81B219E0A08DE18D02
:1018F000401A81B2E08D0028BED00029BCD0D0684B
:1019000020F49070D0602068426922F001024261A8
:1019100084F83E3025632068C26822F01002C2605D
:101920002046FFF732FFF8BD05062BD50D0629D559
:1019300094F83D002128F6D1A068B0F5805F01D170
:101940002069B0B1206A411C21622168007848609A
:10195000E08C401E0004000CE084E4D12068C168E3
:1019600021F08001C1602068C16841F04001C16080
:10197000F8BD206A0088C0F308005060206A801C0F
:101980002062E5E74006F3D54806F1D5D168204648
:1019900021F04001D16084F83D3000F0EAF9F8BD53
:1019A000B320000870B5040004D094F83D00002571
:1019B00010B106E0012070BD84F83C50204600F0D4
:1019C00023F8242084F83D002068C16821F40051E8
:1019D000C160204600F0E8FB2068016921F49041D5
:1019E00001612068416921F02A0141612068C168D4
:1019F00041F40051C1602564202084F83D0084F842
:101A00003E00002070BD000070B586B00024009438
:101A10000194029403942E4E03682E49022003225F
:101A20002D4DB34226D18B6943F480438B618B6982
:101A300003F4804304938B6943F004038B61896949
:101A4000039201F0040104910102CDE900106946FE
:101A50002846FFF795F82815CDE900046946284681
:101A60000294FFF78DF8002202212520FFF7F0F9FC
:101A7000252028E0194EB34227D1CB6943F4003327
:101A8000CB61CB6903F4003304938B6943F0040307
:101A90008B618969039201F0040104910421CDE96D
:101AA000001069462846FFF76BF80820CDE90004CE
:101AB000694628460294FFF763F801220221262096
:101AC000FFF7C6F92620FFF7B5F906B070BD000094
:101AD000003801400010024000080140004400406E
:101AE00090F83E30202B0ED159B152B190F83C30D5
:101AF000012B08D0012380F83C300023036300F061
:101B0000AFBB012070470220704700002DE9FF5F46
:101B10000546002700685E49DFF878914FF6FF7BA5
:101B2000BA4688423FD15CA00FC88DE80F0099F8F3
:101B300000104846FF2910D389F800A04FF48071A7
:101B40005948FEF72CFC6846FEF70AFC82B25B4659
:101B50006946564800F0B4F81FE0534BC2785A5417
:101B6000491CCAB29918027011F8013C0A2B14D111
:101B700011F8021C0D2910D15B464B494B4800F06F
:101B80009FF84A48FFF703FE2128FAD089F800A001
:101B90004FF480714448FEF702FC3E490122C91C03
:101BA0004248FFF79DFF4249286888426DD199F865
:101BB00004204846442A09D08178B9B33D4B417886
:101BC0005A54491C41700A2A03D055E00121817002
:101BD000F4E700259B4612E00BEB05014FF6FF737F
:101BE0000122324800F06CF81BF80500232803D0CE
:101BF0006D2803D1ECB201E005F0FF086D1C99F8E7
:101C000001008542E8D3234A022118325846934600
:101C100007E0425C2E2A03D00BF80620761CF6B2B1
:101C2000491CA142F5D31B4D1D3506E024E0015DA2
:101C30002C2902D0E9557F1CFFB2641C4445F6D321
:101C4000144A1DA1103202F10800FEF7C5FA114A2C
:101C500019A1143202F10900FEF7BEFA0020514624
:101C60005A4603E011542954401CC0B2B042F9D383
:101C700089F8021089F8011004B00649BDE8F05F48
:101C80000122091D0D48FFF72BBFBDE8FF9F000093
:101C9000003801400000002064697374616E636560
:101CA0005F73617A65000000340000207C02002030
:101CB000004400403401002025640000C0020020E0
:101CC0002DE9F843044690F83D001F4616460D46A0
:101CD00020284CD1C5B1BEB194F83C00012846D0B3
:101CE000012084F83C004FF00008C4F84080212017
:101CF00084F83D00FFF746F8A6848146E684A06894
:101D0000B0F5805F03D004E00120BDE8F8832069CE
:101D100028B12E465FF0000584F83C800EE00026D6
:101D2000FAE78021204600F0B6FAA0B9AEB116F865
:101D3000010B21684860E08C401EE084E08C4B463B
:101D40004FF0000200970028EBD14FF040012046F1
:101D500000F0A1FA30B10320D7E735F8020BC0F349
:101D60000800E6E7202084F83D000020CDE70220AF
:101D7000CBE77047FEE7000030B585B00024294866
:101D80000094019402940394816941F020018161DF
:101D9000816901F020010491816941F004018161B0
:101DA000816901F004010491816941F008018161B8
:101DB00080691D4D00F00800049000224FF400518E
:101DC0002846FEF7DAFF01224FF440412846FEF78D
:101DD000D4FF4FF4604000900120CDE901040320BE
:101DE000039069462846FEF7CBFE4FF41060009042
:101DF0000E48CDE9010469460D48FEF7C1FE0022F8
:101E000001211720FFF724F81720FFF713F801220C
:101E100011462820FFF71CF82820FFF70BF805B023
:101E200030BD000000100240000C014000002110F5
:101E30000008014010B586B00024174800940194B2
:101E40000294039404944FF080410594016041F69C
:101E50001F41C0E9011442F20F71C0E9031484610B
:101E6000FFF7EEFA08B1FEF77CFD4FF480500090CA
:101E700069460948FFF75AFB08B1FEF772FD049462
:101E800004A905480594FFF7A7FA002801D0FEF73A
:101E900068FD06B010BD0000340200200C4810B5EB
:101EA0000A4901604FF4E1314160002181600C2258
:101EB000C160C0E904128161C161FFF773FD0028B0
:101EC00003D0BDE81040FEF74CBD10BD0038014006
:101ED0007C0200200C4810B50A4901604FF41641FD
:101EE0004160002181600C22C160C0E9041281615F
:101EF000C161FFF757FD002803D0BDE81040FEF791
:101F000030BD10BD00440040C0020020FEE7FEE7E7
:101F100070B51048D0E902128A1A1E2A18D3C1607F
:101F20004FF6FF7306220CA10D48FFF7C9FE0D4DB9
:101F30004FF4004421462846FEF717FF4FF4FA708D
:101F4000FEF780FD21462846BDE87040FEF70DBF34
:101F500070BD00000000002069534D0D0A00000014
:101F60007C020020000C014070477047FEF710BF54
:101F700030B58FB028216846FEF733FA14210AA83D
:101F8000FEF72FFA01210804CDE900100024029485
:101F900002250491CDE907504FF4E01009906846FE
:101FA000FFF774F808B172B6FEE70F20CDE90A0515
:101FB0004FF48060CDE90C4002210AA80E94FEF790
:101FC00079FF002801D072B6FEE70FB030BD704730
:101FD0000148FFF717BB000034020020F0B502688B
:101FE000164B174C174D4FF08047984205D0B8421A
:101FF00003D0A04201D0A84203D122F070064A6863
:102000003243984205D0B84203D0A04201D0A84242
:1020100003D122F44074CA6822434C6922F0800242
:10202000224302608A68C2620A688262984201D1D1
:102030000969016301214161F0BD0000002C0140EC
:10204000000400400008004010B5846842EA032202
:1020500024F47F440A432243826010BD826822F048
:1020600070020A4342F007018160704710B5036AAD
:10207000046A24F001040462846924F0F00444EA50
:10208000021423F00A020A438461026210BD10B5F3
:10209000036A23F0100303628369046A23F4704324
:1020A00043EA023224F0A00343EA01118261016293
:1020B00010BD10B5406A0021C185C184FFF766FBE1
:1020C00010BD0168CA6822F49072CA6001684A694A
:1020D00022F001024A61016B012904D10168CA683A
:1020E00022F01002CA60202180F83E100021016316
:1020F000704708B590F83E10222901D0022008BD93
:1021000082684FF480539A4201D1016921B1816AFA
:102110009A421BD04AB10AE00268816A5268C2F34F
:1021200008020A80816A891C08E0026972B10268AB
:10213000526802F07F020A70816A491C8162C18D77
:10214000491E0904090CC18503D019E002685268D0
:10215000F1E70168CA6822F02002CA600168CA6813
:1021600022F48072CA6001684A6922F001024A6161
:10217000202180F83E10016B012903D0FFF7C6FC37
:10218000002008BD002101630168CA6822F0100226
:10219000CA6001680A68D20602D50A6849680091D7
:1021A000818DFFF7F2FAEBE770B50446006801692C
:1021B000E26821F44051114301612169A06808439C
:1021C000616908432168CA6841F20C639A4302437B
:1021D000CA6020684169A26921F4407111434161DC
:1021E0001E492068884202D1FEF70AFF01E0FEF78F
:1021F000F7FE00EBC00101EB001260686421800073
:10220000B2FBF0F3B3FBF1F36FF018067343B2FBCC
:10221000F0F5B2FBF0F605EB8305322303EB051571
:10222000B5FBF1F5B6FBF1F605F0F00505EB06158B
:10223000B2FBF0F6B2FBF0F0B0FBF1F06FF0180279
:10224000504306EB800003EB0010B0FBF1F0216877
:1022500000F00F002844886070BD00000038014085
:1022600081628285C28500210164222280F83E209D
:1022700080F83C100168CA6842F48072CA60016844
:102280004A6942F001024A610068C16841F02001D8
:10229000C160002070472DE9F041984617460E4670
:1022A0000446069D1DE0681C1BD02DB1FEF76AFD9B
:1022B000A0EB0800A84214D92068C16821F4D071AD
:1022C000C1602068416921F001014161202084F84A
:1022D0003D0084F83E00002084F83C000320BDE867
:1022E000F0812068006836EA000004D00020B8427F
:1022F000D9D00020F3E70120F9E700000148FFF7FB
:102300004BBA00007C0200200148FFF745BA0000EC
:10231000C0020020FEE70907090E002804DB00F1D7
:10232000E02080F80014704700F00F0000F1E0207A
:1023300080F8141D70470000FEF732FDFFF718FE0D
:10234000FFF71AFDFFF7AAFDFFF7C4FDFFF772FDC7
:10235000012211491148FFF7C3FB0F490122491C13
:102360000F48FFF7BDFB0F48FFF7B4F84FF6FF74B7
:10237000234604220CA10A48FFF7A2FC4FF4FA7589
:1023800023460A220AA10548FFF79AFCFFF7C0FD81
:102390002846FEF757FBF3E7030000207C020020ED
:1023A000C0020020340200206941434D00000000BB
:1023B000E695B0E68DAEE6BAA2E587BA0000000069
:1023C00010B500290AD00878002807D005487844BD
:1023D000FEF776FA002801D0002010BD02487844AC
:1023E00010BD0000560000004E000000000000007C
:1023F00000000000010203040607080900000000B5
:10240000010203043425000800000020340000000D
:102410002801000868250008340000203409000065
:10242000440100081001000043000000F8FFFFFF16
:1024300000404040404040404040414141414140D7
:10244000404040404040404040404040404040408C
:10245000400502020202020202020202020202021B
:102460000220202020202020202020020202020220
:102470000202909090909090101010101010101078
:102480001010101010101010101010100202020284
:1024900002028888888888880808080808080808C8
:1024A00008080808080808080808080802020202C4
:1024B00040000000000000000000000000000000DC
:1024C000000000000000000000000000000000000C
:1024D00000000000000000000000000000000000FC
:1024E00000000000000000000000000000000000EC
:1024F00000000000000000000000000000000000DC
:1025000000000000000000000000000000000000CB
:1025100000000000000000000000000000000000BB
:1025200000000000000000000000000000000000AB
:10253000000000000000000000000000000000009B
:10254000000000000000000000000000000000008B
:10255000000000000000000001000000100000006A
:08256000000000000024F4005B
:04000005080000ED02
:00000001FF
